{
  "_format": "hh-sol-artifact-1",
  "contractName": "UTXO",
  "sourceName": "contracts/UTXOSimulator.sol",
  "abi": [
    {
      "anonymous": false,
      "inputs": [
        {
          "indexed": true,
          "internalType": "uint256",
          "name": "utxoId",
          "type": "uint256"
        },
        {
          "indexed": false,
          "internalType": "uint256",
          "name": "blockNumber",
          "type": "uint256"
        },
        {
          "indexed": false,
          "internalType": "bytes",
          "name": "encryptedData",
          "type": "bytes"
        }
      ],
      "name": "UTXORecorded",
      "type": "event"
    },
    {
      "inputs": [
        {
          "internalType": "uint256",
          "name": "utxoId",
          "type": "uint256"
        }
      ],
      "name": "getUTXO",
      "outputs": [
        {
          "internalType": "uint256",
          "name": "blockNumber",
          "type": "uint256"
        },
        {
          "internalType": "bytes",
          "name": "encryptedData",
          "type": "bytes"
        }
      ],
      "stateMutability": "view",
      "type": "function"
    },
    {
      "inputs": [
        {
          "internalType": "bytes",
          "name": "encryptedData",
          "type": "bytes"
        }
      ],
      "name": "recordUTXO",
      "outputs": [],
      "stateMutability": "nonpayable",
      "type": "function"
    }
  ],
  "bytecode": "0x608060405234801561001057600080fd5b5061085d806100206000396000f3fe608060405234801561001057600080fd5b50600436106100365760003560e01c80631952e4dd1461003b5780635da1af3c14610057575b600080fd5b610055600480360381019061005091906102b6565b610088565b005b610071600480360381019061006c9190610339565b610172565b60405161007f929190610405565b60405180910390f35b60006001600081548092919061009d90610464565b919050559050604051806040016040528043815260200184848080601f016020809104026020016040519081016040528093929190818152602001838380828437600081840152601f19601f8201169050808301925050505050505081525060008083815260200190815260200160002060008201518160000155602082015181600101908161012d91906106e7565b50905050807f317c7741c115e02eaee92ec12dafdf97cf8cb8520c8b569a6aed739c9487bc35438585604051610165939291906107f5565b60405180910390a2505050565b600060606000806000858152602001908152602001600020604051806040016040529081600082015481526020016001820180546101af9061050a565b80601f01602080910402602001604051908101604052809291908181526020018280546101db9061050a565b80156102285780601f106101fd57610100808354040283529160200191610228565b820191906000526020600020905b81548152906001019060200180831161020b57829003601f168201915b5050505050815250509050806000015181602001519250925050915091565b600080fd5b600080fd5b600080fd5b600080fd5b600080fd5b60008083601f84011261027657610275610251565b5b8235905067ffffffffffffffff81111561029357610292610256565b5b6020830191508360018202830111156102af576102ae61025b565b5b9250929050565b600080602083850312156102cd576102cc610247565b5b600083013567ffffffffffffffff8111156102eb576102ea61024c565b5b6102f785828601610260565b92509250509250929050565b6000819050919050565b61031681610303565b811461032157600080fd5b50565b6000813590506103338161030d565b92915050565b60006020828403121561034f5761034e610247565b5b600061035d84828501610324565b91505092915050565b61036f81610303565b82525050565b600081519050919050565b600082825260208201905092915050565b60005b838110156103af578082015181840152602081019050610394565b60008484015250505050565b6000601f19601f8301169050919050565b60006103d782610375565b6103e18185610380565b93506103f1818560208601610391565b6103fa816103bb565b840191505092915050565b600060408201905061041a6000830185610366565b818103602083015261042c81846103cc565b90509392505050565b7f4e487b7100000000000000000000000000000000000000000000000000000000600052601160045260246000fd5b600061046f82610303565b91507fffffffffffffffffffffffffffffffffffffffffffffffffffffffffffffffff82036104a1576104a0610435565b5b600182019050919050565b7f4e487b7100000000000000000000000000000000000000000000000000000000600052604160045260246000fd5b7f4e487b7100000000000000000000000000000000000000000000000000000000600052602260045260246000fd5b6000600282049050600182168061052257607f821691505b602082108103610535576105346104db565b5b50919050565b60008190508160005260206000209050919050565b60006020601f8301049050919050565b600082821b905092915050565b60006008830261059d7fffffffffffffffffffffffffffffffffffffffffffffffffffffffffffffffff82610560565b6105a78683610560565b95508019841693508086168417925050509392505050565b6000819050919050565b60006105e46105df6105da84610303565b6105bf565b610303565b9050919050565b6000819050919050565b6105fe836105c9565b61061261060a826105eb565b84845461056d565b825550505050565b600090565b61062761061a565b6106328184846105f5565b505050565b5b818110156106565761064b60008261061f565b600181019050610638565b5050565b601f82111561069b5761066c8161053b565b61067584610550565b81016020851015610684578190505b61069861069085610550565b830182610637565b50505b505050565b600082821c905092915050565b60006106be600019846008026106a0565b1980831691505092915050565b60006106d783836106ad565b9150826002028217905092915050565b6106f082610375565b67ffffffffffffffff811115610709576107086104ac565b5b610713825461050a565b61071e82828561065a565b600060209050601f831160018114610751576000841561073f578287015190505b61074985826106cb565b8655506107b1565b601f19841661075f8661053b565b60005b8281101561078757848901518255600182019150602085019450602081019050610762565b868310156107a457848901516107a0601f8916826106ad565b8355505b6001600288020188555050505b505050505050565b82818337600083830152505050565b60006107d48385610380565b93506107e18385846107b9565b6107ea836103bb565b840190509392505050565b600060408201905061080a6000830186610366565b818103602083015261081d8184866107c8565b905094935050505056fea2646970667358221220424371abcfd32dbf66408bc0f10d429adb41dfa4fd10a7972a954f31f905915e64736f6c63430008180033",
  "linkReferences": {},
  "deployedLinkReferences": {}
}